{
    "contractName": "TestERC20",
    "abi": [
        {
            "inputs": [
                {
                    "internalType": "uint256",
                    "name": "amountToMint",
                    "type": "uint256"
                }
            ],
            "stateMutability": "nonpayable",
            "type": "constructor"
        },
        {
            "inputs": [],
            "name": "InvalidShortString",
            "type": "error"
        },
        {
            "inputs": [
                {
                    "internalType": "string",
                    "name": "str",
                    "type": "string"
                }
            ],
            "name": "StringTooLong",
            "type": "error"
        },
        {
            "anonymous": false,
            "inputs": [
                {
                    "indexed": true,
                    "internalType": "address",
                    "name": "owner",
                    "type": "address"
                },
                {
                    "indexed": true,
                    "internalType": "address",
                    "name": "spender",
                    "type": "address"
                },
                {
                    "indexed": false,
                    "internalType": "uint256",
                    "name": "value",
                    "type": "uint256"
                }
            ],
            "name": "Approval",
            "type": "event"
        },
        {
            "anonymous": false,
            "inputs": [],
            "name": "EIP712DomainChanged",
            "type": "event"
        },
        {
            "anonymous": false,
            "inputs": [
                {
                    "indexed": true,
                    "internalType": "address",
                    "name": "from",
                    "type": "address"
                },
                {
                    "indexed": true,
                    "internalType": "address",
                    "name": "to",
                    "type": "address"
                },
                {
                    "indexed": false,
                    "internalType": "uint256",
                    "name": "value",
                    "type": "uint256"
                }
            ],
            "name": "Transfer",
            "type": "event"
        },
        {
            "inputs": [],
            "name": "DOMAIN_SEPARATOR",
            "outputs": [
                {
                    "internalType": "bytes32",
                    "name": "",
                    "type": "bytes32"
                }
            ],
            "stateMutability": "view",
            "type": "function"
        },
        {
            "inputs": [
                {
                    "internalType": "address",
                    "name": "owner",
                    "type": "address"
                },
                {
                    "internalType": "address",
                    "name": "spender",
                    "type": "address"
                }
            ],
            "name": "allowance",
            "outputs": [
                {
                    "internalType": "uint256",
                    "name": "",
                    "type": "uint256"
                }
            ],
            "stateMutability": "view",
            "type": "function"
        },
        {
            "inputs": [
                {
                    "internalType": "address",
                    "name": "spender",
                    "type": "address"
                },
                {
                    "internalType": "uint256",
                    "name": "amount",
                    "type": "uint256"
                }
            ],
            "name": "approve",
            "outputs": [
                {
                    "internalType": "bool",
                    "name": "",
                    "type": "bool"
                }
            ],
            "stateMutability": "nonpayable",
            "type": "function"
        },
        {
            "inputs": [
                {
                    "internalType": "address",
                    "name": "account",
                    "type": "address"
                }
            ],
            "name": "balanceOf",
            "outputs": [
                {
                    "internalType": "uint256",
                    "name": "",
                    "type": "uint256"
                }
            ],
            "stateMutability": "view",
            "type": "function"
        },
        {
            "inputs": [],
            "name": "decimals",
            "outputs": [
                {
                    "internalType": "uint8",
                    "name": "",
                    "type": "uint8"
                }
            ],
            "stateMutability": "view",
            "type": "function"
        },
        {
            "inputs": [
                {
                    "internalType": "address",
                    "name": "spender",
                    "type": "address"
                },
                {
                    "internalType": "uint256",
                    "name": "subtractedValue",
                    "type": "uint256"
                }
            ],
            "name": "decreaseAllowance",
            "outputs": [
                {
                    "internalType": "bool",
                    "name": "",
                    "type": "bool"
                }
            ],
            "stateMutability": "nonpayable",
            "type": "function"
        },
        {
            "inputs": [],
            "name": "eip712Domain",
            "outputs": [
                {
                    "internalType": "bytes1",
                    "name": "fields",
                    "type": "bytes1"
                },
                {
                    "internalType": "string",
                    "name": "name",
                    "type": "string"
                },
                {
                    "internalType": "string",
                    "name": "version",
                    "type": "string"
                },
                {
                    "internalType": "uint256",
                    "name": "chainId",
                    "type": "uint256"
                },
                {
                    "internalType": "address",
                    "name": "verifyingContract",
                    "type": "address"
                },
                {
                    "internalType": "bytes32",
                    "name": "salt",
                    "type": "bytes32"
                },
                {
                    "internalType": "uint256[]",
                    "name": "extensions",
                    "type": "uint256[]"
                }
            ],
            "stateMutability": "view",
            "type": "function"
        },
        {
            "inputs": [
                {
                    "internalType": "address",
                    "name": "spender",
                    "type": "address"
                },
                {
                    "internalType": "uint256",
                    "name": "addedValue",
                    "type": "uint256"
                }
            ],
            "name": "increaseAllowance",
            "outputs": [
                {
                    "internalType": "bool",
                    "name": "",
                    "type": "bool"
                }
            ],
            "stateMutability": "nonpayable",
            "type": "function"
        },
        {
            "inputs": [],
            "name": "name",
            "outputs": [
                {
                    "internalType": "string",
                    "name": "",
                    "type": "string"
                }
            ],
            "stateMutability": "view",
            "type": "function"
        },
        {
            "inputs": [
                {
                    "internalType": "address",
                    "name": "owner",
                    "type": "address"
                }
            ],
            "name": "nonces",
            "outputs": [
                {
                    "internalType": "uint256",
                    "name": "",
                    "type": "uint256"
                }
            ],
            "stateMutability": "view",
            "type": "function"
        },
        {
            "inputs": [
                {
                    "internalType": "address",
                    "name": "owner",
                    "type": "address"
                },
                {
                    "internalType": "address",
                    "name": "spender",
                    "type": "address"
                },
                {
                    "internalType": "uint256",
                    "name": "value",
                    "type": "uint256"
                },
                {
                    "internalType": "uint256",
                    "name": "deadline",
                    "type": "uint256"
                },
                {
                    "internalType": "uint8",
                    "name": "v",
                    "type": "uint8"
                },
                {
                    "internalType": "bytes32",
                    "name": "r",
                    "type": "bytes32"
                },
                {
                    "internalType": "bytes32",
                    "name": "s",
                    "type": "bytes32"
                }
            ],
            "name": "permit",
            "outputs": [],
            "stateMutability": "nonpayable",
            "type": "function"
        },
        {
            "inputs": [],
            "name": "symbol",
            "outputs": [
                {
                    "internalType": "string",
                    "name": "",
                    "type": "string"
                }
            ],
            "stateMutability": "view",
            "type": "function"
        },
        {
            "inputs": [],
            "name": "totalSupply",
            "outputs": [
                {
                    "internalType": "uint256",
                    "name": "",
                    "type": "uint256"
                }
            ],
            "stateMutability": "view",
            "type": "function"
        },
        {
            "inputs": [
                {
                    "internalType": "address",
                    "name": "to",
                    "type": "address"
                },
                {
                    "internalType": "uint256",
                    "name": "amount",
                    "type": "uint256"
                }
            ],
            "name": "transfer",
            "outputs": [
                {
                    "internalType": "bool",
                    "name": "",
                    "type": "bool"
                }
            ],
            "stateMutability": "nonpayable",
            "type": "function"
        },
        {
            "inputs": [
                {
                    "internalType": "address",
                    "name": "from",
                    "type": "address"
                },
                {
                    "internalType": "address",
                    "name": "to",
                    "type": "address"
                },
                {
                    "internalType": "uint256",
                    "name": "amount",
                    "type": "uint256"
                }
            ],
            "name": "transferFrom",
            "outputs": [
                {
                    "internalType": "bool",
                    "name": "",
                    "type": "bool"
                }
            ],
            "stateMutability": "nonpayable",
            "type": "function"
        }
    ],
    "bytecode": "6101606040523480156200001257600080fd5b5060405162001657380380620016578339810160408190526200003591620002e9565b6040518060400160405280600a8152602001690546573742045524332360b41b81525080604051806040016040528060018152602001603160f81b8152506040518060400160405280600a8152602001690546573742045524332360b41b81525060405180604001604052806004815260200163151154d560e21b8152508160039081620000c49190620003a7565b506004620000d38282620003a7565b50620000e591508390506005620001a1565b61012052620000f6816006620001a1565b61014052815160208084019190912060e052815190820120610100524660a0526200018460e05161010051604080517f8b73c3c69bb8fe3d512ecc4cf759cc79239f7b179b0ffacaa9a75d522b39400f60208201529081019290925260608201524660808201523060a082015260009060c00160405160208183030381529060405280519060200120905090565b60805250503060c052506200019a3382620001da565b506200050a565b6000602083511015620001c157620001b983620002a1565b9050620001d4565b81620001ce8482620003a7565b5060ff90505b92915050565b6001600160a01b038216620002365760405162461bcd60e51b815260206004820152601f60248201527f45524332303a206d696e7420746f20746865207a65726f20616464726573730060448201526064015b60405180910390fd5b80600260008282546200024a919062000473565b90915550506001600160a01b038216600081815260208181526040808320805486019055518481527fddf252ad1be2c89b69c2b068fc378daa952ba7f163c4a11628f55a4df523b3ef910160405180910390a35050565b600080829050601f81511115620002cf578260405163305a27a960e01b81526004016200022d919062000495565b8051620002dc82620004e5565b179392505050565b505050565b600060208284031215620002fc57600080fd5b5051919050565b634e487b7160e01b600052604160045260246000fd5b600181811c908216806200032e57607f821691505b6020821081036200034f57634e487b7160e01b600052602260045260246000fd5b50919050565b601f821115620002e457600081815260208120601f850160051c810160208610156200037e5750805b601f850160051c820191505b818110156200039f578281556001016200038a565b505050505050565b81516001600160401b03811115620003c357620003c362000303565b620003db81620003d4845462000319565b8462000355565b602080601f831160018114620004135760008415620003fa5750858301515b600019600386901b1c1916600185901b1785556200039f565b600085815260208120601f198616915b82811015620004445788860151825594840194600190910190840162000423565b5085821015620004635787850151600019600388901b60f8161c191681555b5050505050600190811b01905550565b80820180821115620001d457634e487b7160e01b600052601160045260246000fd5b600060208083528351808285015260005b81811015620004c457858101830151858201604001528201620004a6565b506000604082860101526040601f19601f8301168501019250505092915050565b805160208083015191908110156200034f5760001960209190910360031b1b16919050565b60805160a05160c05160e0516101005161012051610140516110f262000565600039600061038f0152600061036401526000610a27015260006109ff0152600061095a01526000610984015260006109ae01526110f26000f3fe608060405234801561001057600080fd5b50600436106100f55760003560e01c806370a0823111610097578063a457c2d711610066578063a457c2d7146101e9578063a9059cbb146101fc578063d505accf1461020f578063dd62ed3e1461022457600080fd5b806370a082311461018a5780637ecebe00146101b357806384b0196e146101c657806395d89b41146101e157600080fd5b806323b872dd116100d357806323b872dd1461014d578063313ce567146101605780633644e5151461016f578063395093511461017757600080fd5b806306fdde03146100fa578063095ea7b31461011857806318160ddd1461013b575b600080fd5b610102610237565b60405161010f9190610e5e565b60405180910390f35b61012b610126366004610e94565b6102c9565b604051901515815260200161010f565b6002545b60405190815260200161010f565b61012b61015b366004610ebe565b6102e3565b6040516012815260200161010f565b61013f610307565b61012b610185366004610e94565b610316565b61013f610198366004610efa565b6001600160a01b031660009081526020819052604090205490565b61013f6101c1366004610efa565b610338565b6101ce610356565b60405161010f9796959493929190610f15565b6101026103df565b61012b6101f7366004610e94565b6103ee565b61012b61020a366004610e94565b61046e565b61022261021d366004610fab565b61047c565b005b61013f61023236600461101e565b6105e0565b60606003805461024690611051565b80601f016020809104026020016040519081016040528092919081815260200182805461027290611051565b80156102bf5780601f10610294576101008083540402835291602001916102bf565b820191906000526020600020905b8154815290600101906020018083116102a257829003601f168201915b5050505050905090565b6000336102d781858561060b565b60019150505b92915050565b6000336102f185828561072f565b6102fc8585856107a9565b506001949350505050565b600061031161094d565b905090565b6000336102d781858561032983836105e0565b6103339190611085565b61060b565b6001600160a01b0381166000908152600760205260408120546102dd565b60006060808280808361038a7f00000000000000000000000000000000000000000000000000000000000000006005610a78565b6103b57f00000000000000000000000000000000000000000000000000000000000000006006610a78565b60408051600080825260208201909252600f60f81b9b939a50919850469750309650945092509050565b60606004805461024690611051565b600033816103fc82866105e0565b9050838110156104615760405162461bcd60e51b815260206004820152602560248201527f45524332303a2064656372656173656420616c6c6f77616e63652062656c6f77604482015264207a65726f60d81b60648201526084015b60405180910390fd5b6102fc828686840361060b565b6000336102d78185856107a9565b834211156104cc5760405162461bcd60e51b815260206004820152601d60248201527f45524332305065726d69743a206578706972656420646561646c696e650000006044820152606401610458565b60007f6e71edae12b1b97f4d1f60370fef10105fa2faae0126114a169c64845d6126c98888886104fb8c610b23565b6040805160208101969096526001600160a01b0394851690860152929091166060840152608083015260a082015260c0810186905260e001604051602081830303815290604052805190602001209050600061055682610b4b565b9050600061056682878787610b78565b9050896001600160a01b0316816001600160a01b0316146105c95760405162461bcd60e51b815260206004820152601e60248201527f45524332305065726d69743a20696e76616c6964207369676e617475726500006044820152606401610458565b6105d48a8a8a61060b565b50505050505050505050565b6001600160a01b03918216600090815260016020908152604080832093909416825291909152205490565b6001600160a01b03831661066d5760405162461bcd60e51b8152602060048201526024808201527f45524332303a20617070726f76652066726f6d20746865207a65726f206164646044820152637265737360e01b6064820152608401610458565b6001600160a01b0382166106ce5760405162461bcd60e51b815260206004820152602260248201527f45524332303a20617070726f766520746f20746865207a65726f206164647265604482015261737360f01b6064820152608401610458565b6001600160a01b0383811660008181526001602090815260408083209487168084529482529182902085905590518481527f8c5be1e5ebec7d5bd14f71427d1e84f3dd0314c0f7b2291e5b200ac8c7c3b925910160405180910390a3505050565b600061073b84846105e0565b905060001981146107a357818110156107965760405162461bcd60e51b815260206004820152601d60248201527f45524332303a20696e73756666696369656e7420616c6c6f77616e63650000006044820152606401610458565b6107a3848484840361060b565b50505050565b6001600160a01b03831661080d5760405162461bcd60e51b815260206004820152602560248201527f45524332303a207472616e736665722066726f6d20746865207a65726f206164604482015264647265737360d81b6064820152608401610458565b6001600160a01b03821661086f5760405162461bcd60e51b815260206004820152602360248201527f45524332303a207472616e7366657220746f20746865207a65726f206164647260448201526265737360e81b6064820152608401610458565b6001600160a01b038316600090815260208190526040902054818110156108e75760405162461bcd60e51b815260206004820152602660248201527f45524332303a207472616e7366657220616d6f756e7420657863656564732062604482015265616c616e636560d01b6064820152608401610458565b6001600160a01b03848116600081815260208181526040808320878703905593871680835291849020805487019055925185815290927fddf252ad1be2c89b69c2b068fc378daa952ba7f163c4a11628f55a4df523b3ef910160405180910390a36107a3565b6000306001600160a01b037f0000000000000000000000000000000000000000000000000000000000000000161480156109a657507f000000000000000000000000000000000000000000000000000000000000000046145b156109d057507f000000000000000000000000000000000000000000000000000000000000000090565b610311604080517f8b73c3c69bb8fe3d512ecc4cf759cc79239f7b179b0ffacaa9a75d522b39400f60208201527f0000000000000000000000000000000000000000000000000000000000000000918101919091527f000000000000000000000000000000000000000000000000000000000000000060608201524660808201523060a082015260009060c00160405160208183030381529060405280519060200120905090565b606060ff8314610a9257610a8b83610ba0565b90506102dd565b818054610a9e90611051565b80601f0160208091040260200160405190810160405280929190818152602001828054610aca90611051565b8015610b175780601f10610aec57610100808354040283529160200191610b17565b820191906000526020600020905b815481529060010190602001808311610afa57829003601f168201915b505050505090506102dd565b6001600160a01b03811660009081526007602052604090208054600181018255905b50919050565b60006102dd610b5861094d565b8360405161190160f01b8152600281019290925260228201526042902090565b6000806000610b8987878787610bdf565b91509150610b9681610ca3565b5095945050505050565b60606000610bad83610df0565b604080516020808252818301909252919250600091906020820181803683375050509182525060208101929092525090565b6000807f7fffffffffffffffffffffffffffffff5d576e7357a4501ddfe92f46681b20a0831115610c165750600090506003610c9a565b6040805160008082526020820180845289905260ff881692820192909252606081018690526080810185905260019060a0016020604051602081039080840390855afa158015610c6a573d6000803e3d6000fd5b5050604051601f1901519150506001600160a01b038116610c9357600060019250925050610c9a565b9150600090505b94509492505050565b6000816004811115610cb757610cb76110a6565b03610cbf5750565b6001816004811115610cd357610cd36110a6565b03610d205760405162461bcd60e51b815260206004820152601860248201527f45434453413a20696e76616c6964207369676e617475726500000000000000006044820152606401610458565b6002816004811115610d3457610d346110a6565b03610d815760405162461bcd60e51b815260206004820152601f60248201527f45434453413a20696e76616c6964207369676e6174757265206c656e677468006044820152606401610458565b6003816004811115610d9557610d956110a6565b03610ded5760405162461bcd60e51b815260206004820152602260248201527f45434453413a20696e76616c6964207369676e6174757265202773272076616c604482015261756560f01b6064820152608401610458565b50565b600060ff8216601f8111156102dd57604051632cd44ac360e21b815260040160405180910390fd5b6000815180845260005b81811015610e3e57602081850181015186830182015201610e22565b506000602082860101526020601f19601f83011685010191505092915050565b602081526000610e716020830184610e18565b9392505050565b80356001600160a01b0381168114610e8f57600080fd5b919050565b60008060408385031215610ea757600080fd5b610eb083610e78565b946020939093013593505050565b600080600060608486031215610ed357600080fd5b610edc84610e78565b9250610eea60208501610e78565b9150604084013590509250925092565b600060208284031215610f0c57600080fd5b610e7182610e78565b60ff60f81b881681526000602060e081840152610f3560e084018a610e18565b8381036040850152610f47818a610e18565b606085018990526001600160a01b038816608086015260a0850187905284810360c0860152855180825283870192509083019060005b81811015610f9957835183529284019291840191600101610f7d565b50909c9b505050505050505050505050565b600080600080600080600060e0888a031215610fc657600080fd5b610fcf88610e78565b9650610fdd60208901610e78565b95506040880135945060608801359350608088013560ff8116811461100157600080fd5b9699959850939692959460a0840135945060c09093013592915050565b6000806040838503121561103157600080fd5b61103a83610e78565b915061104860208401610e78565b90509250929050565b600181811c9082168061106557607f821691505b602082108103610b4557634e487b7160e01b600052602260045260246000fd5b808201808211156102dd57634e487b7160e01b600052601160045260246000fd5b634e487b7160e01b600052602160045260246000fdfea2646970667358221220c0f567c56e6d79e34e56f1057a46ec5fd7b7ee5133ede1a50d1fa39cb4a9321c64736f6c63430008130033",
    "sourcePath": "/home/caleb/collar-protocol-core/test/utils/UniswapMocks.sol",
    "compiler": {
        "name": "solc",
        "version": "0.8.19+commit.7dd6d404"
    },
    "functionHashes": {
        "DOMAIN_SEPARATOR()": "3644e515",
        "allowance(address,address)": "dd62ed3e",
        "approve(address,uint256)": "095ea7b3",
        "balanceOf(address)": "70a08231",
        "decimals()": "313ce567",
        "decreaseAllowance(address,uint256)": "a457c2d7",
        "eip712Domain()": "84b0196e",
        "increaseAllowance(address,uint256)": "39509351",
        "name()": "06fdde03",
        "nonces(address)": "7ecebe00",
        "permit(address,address,uint256,uint256,uint8,bytes32,bytes32)": "d505accf",
        "symbol()": "95d89b41",
        "totalSupply()": "18160ddd",
        "transfer(address,uint256)": "a9059cbb",
        "transferFrom(address,address,uint256)": "23b872dd"
    },
    "gasEstimates": {
        "creation": {
            "codeDepositCost": "867600",
            "executionCost": "infinite",
            "totalCost": "infinite"
        },
        "external": {
            "DOMAIN_SEPARATOR()": "infinite",
            "allowance(address,address)": "infinite",
            "approve(address,uint256)": "24651",
            "balanceOf(address)": "2563",
            "decimals()": "222",
            "decreaseAllowance(address,uint256)": "26972",
            "eip712Domain()": "infinite",
            "increaseAllowance(address,uint256)": "infinite",
            "name()": "infinite",
            "nonces(address)": "2616",
            "permit(address,address,uint256,uint256,uint8,bytes32,bytes32)": "infinite",
            "symbol()": "infinite",
            "totalSupply()": "2349",
            "transfer(address,uint256)": "51094",
            "transferFrom(address,address,uint256)": "infinite"
        }
    }
}